:020000040000FA
:020000000528D1
:040002000034003492
:020008002728A7
:06000A00831203138801BC
:100010008316880183128312031386018316031744
:1000200089010313F03086008113F0309500F03021
:100030009600831283160313161696161617961734
:100040008312031306080B108B158B172628F0005C
:10005000030EF100831203130B1834282F28710E9E
:100060008300F00E700E09003A2041208312031322
:100070000B102F28A001A00A831203130610861468
:10008000542883120313880120084A208312031383
:100090008800080082070034013402340434083434
:1000A000103420344034803483120313061E632836
:1000B000A00A861E6328A00A061F6328A00A861FBE
:1000C0006328A00A702883120313061E6528861E63
:1000D0006728061F6928861F6B28061086100800EF
:1000E00083120313061C7728861C7C287C28831225
:1000F0000313061486105428A0018312031306105C
:04010000861008005D
:02400E00F12F90
:00000001FF
