:020000040000FA
:020000000528D1
:0800080027288312031388016D
:100010008316880183128312031386018316031744
:1000200089010313F03086008113F0309500F03021
:100030009600831283160313161696161617961734
:100040008312031306080B108B158B172628F0005C
:10005000030EF100831203130B1834282F28710E9E
:100060008300F00E700E09003B2045204C208312C7
:1000700003130B102F280A30A100FA30A200000051
:10008000A20B3F28A10B3D280800A001A00A831263
:100090000313061086145F288312031388012008B7
:1000A00055208312031388000800820700340134AE
:1000B0000234043408341034203440348034831241
:1000C0000313061E6E28A00A861E6E28A00A061FAD
:1000D0006E28A00A861F6E28A00A842883120313A4
:1000E000061E7028861E7028061F7028861F70281E
:1000F0003B20061E7028861E7028061F7028861F4B
:10010000702806108610080083120313061C8B2823
:10011000861C9028902883120313061486105F28EB
:0C012000A00183120313061086100800D3
:02400E00F12F90
:00000001FF
