:020000040000FA
:020000000528D1
:040002000034003492
:06000A008316031307102A
:100010008710071183120710871007110330A600FD
:100020000230A7000130A800831603138801831251
:1000300088013E200530A0000930A1001130A20047
:10004000842020282008A3002108A4002208A5005D
:10005000A50B2828A40B2628A30B2428080003306E
:10006000AA000800AA030800820700347D343F3448
:100070007D34820700340434023401342F202A08EE
:10008000392087008312031303148312031388019A
:100090000530A000A930A1007530A2000730AB00E8
:1000A000880D2220AB0B50288312031308148814E8
:1000B000081588150816881608171F30A0009030FC
:1000C000A1009430A2002220831203138801222071
:1000D000AA0B3F282F2008002608342088002A0871
:1000E00039208700322008002708342088002A0899
:1000F00039208700322008002808342088002A0888
:100100003920870032200800222003302A020319F8
:100110007C2802302A020319742801302A020319AC
:060120006C282F200800EE
:02400E00F12F90
:00000001FF
