:020000040000FA
:020000000528D1
:040002000034003492
:06000A00831603178801B4
:1000100089018316031307108710071188018312C3
:100020000313870188010530A0000930A1001130B9
:10003000A2000A30A3000030A7000630A9006A2001
:1000400083120313870188010530A0000930A10045
:100050001130A2000330A8003B202C282008A40067
:100060002108A5002208A600A60B3428A50B3228DB
:10007000A40B302808002E202808033A0319492829
:100080002808023A031951282808013A0319592867
:10009000672887012908A62088002808B220870041
:1000A000612887012708A62088002808B220870039
:1000B000612887012308A62088002808B22087002D
:1000C0006128A803031D66280330A8000800033038
:1000D000A80008000330A80087012808B220870084
:1000E0000130AB000730AA002B0888000330A000C5
:1000F000F830A1008530A2002E202E200310AB0D79
:10010000AA0B74287F3088000A30A000F830A100C4
:100110008530A2002E200A30A000F830A1008530E2
:10012000A2002E2088010A30A000F830A1008530FE
:10013000A2002E200A30A000F830A1008530A200D5
:100140002E20A8032808031D6C28080082073F34CE
:1001500006345B344F3466346D347D3407347F3479
:0E01600067347D3482070034013402340434E5
:02400E00F12F90
:00000001FF
