:020000040000FA
:020000000528D1
:06000A00831603178812A3
:1000100003130914831283160313880183128801C2
:100020000330A7008316031307108312031307106E
:100030002A2009181828402018282008A300210881
:10004000A4002208A500A50B2328A40B2128A30B9C
:100050001F2808002E30A000BD30A1002530A200CE
:10006000FF3088001D2088011D200800071405307E
:10007000A0005F30A1008B30A2001D2007100800F7
:10008000362045205220602008000530A000A9300D
:10009000A1007530A20088016E20A70B4C28033008
:1000A000A70008000530A0005F30A1008B30A2003F
:1000B00088016E207420A70B59280330A700080080
:1000C0000130A000C630A100A730A20088017A202C
:1000D0008120A70B67280330A70008000314880DB0
:1000E0001D20881F6F2808000310880C1D20081C85
:1000F0007528080003100314880D1D20881F7B2815
:1001000008000310880D1D208808031D81280800A1
:02400E00F12F90
:00000001FF
